:100000000C9402010C9428010C9428010C942801F2
:100010000C9428010C9428010C9428010C942801BC
:100020000C9428010C9428010C9428010C942801AC
:100030000C9428010C9428010C9428010C9428019C
:100040000C9428010C9428010C9428010C9428018C
:100050000C9428010C9428010C9428010C9428017C
:100060000C9428010C9428010C9428010C9428016C
:100070000C9428010C9428010C9428010C9428015C
:100080000C9428010C9428010C9428010C9428014C
:100090000C9428010C9428010C9428010C9428013C
:1000A0000C9428010C9428010C9428010C9428012C
:1000B0000C9428010C9428010C9428010C9428011C
:1000C0000C9428010C9428010C9428010C9428010C
:1000D0000C9428010C9428010C9428010C942801FC
:1000E0000C9428010C9428010C9428010C942801EC
:1000F0000C9428010C9428010C9428010C942801DC
:100100000C9428010C9428010C9428010C942801CB
:100110000C9428010C9428010C9428010C942801BB
:100120000C9428010C9428010C9428010C942801AB
:100130000C9428010C9428010C9428010C9428019B
:100140000C9428010C9428010C9428010C9428018B
:100150000C9428010C9428010C9428010C9428017B
:100160000C9469040C9428010C9428010C94280127
:100170000C9428010C9428010C9428010C9428015B
:100180000C9428010C9428010C9428010C9428014B
:100190000C9428010C9428010C9428010C9428013B
:1001A0000C9428010C9428010C9428010C9428012B
:1001B0000C946C050C9428010C9428010C942801D3
:1001C0000C9428010C9428010C94EF050C94280140
:1001D0000C9428010C9428010C9428010C942801FB
:1001E0000C9428010C9428010C9428010C942801EB
:1001F0000C9428010C9428010C9428010C944403BD
:100200000C942F0411241FBECFEFCDBFDFE3DEBF60
:1002100000E00CBF18BE19BE1ABE1BBE10E2A0E063
:10022000B0E2E6EBFCE000E00BBF02C007900D92ED
:10023000A635B107D9F71BBE20E2A6E5B0E201C0A2
:100240001D92A33DB207E1F70E9454030C94590696
:100250000C9400000F9302E00093500000915100B5
:1002600001FFFCCF08ED0093340001E00093400053
:1002700008ED0093340000E0009341000F910895D1
:10028000C82FD92FA62FB72F8DB79EB707968DBF32
:100290009EBF8F918D8F8F918C8F8F918F8F8F912C
:1002A0008E8F8F918B8F8F918A8F8F91898F8F9166
:1002B000888F8F918F8B8F918E8B8F918D8B8F915C
:1002C0008C8B8F918B8B8F918A8B198B088BFF86F0
:1002D000EE86DD86CC86BB86AA86998688867F8256
:1002E0006E825D824C823B822A828F9189A78F9198
:1002F00088A78F918FA38F918EA38F918DA38F91BC
:1003000088838F9189838F9188A38F9189A38F91FF
:100310008AA38EB78BA38DB78CA3CA2FDB2F08803F
:1003200019802A803B804C805D806E807F8088842D
:100330009984AA84BB84CC84DD84EE84FF840889FC
:1003400019892A893B894C895D896E897F89AA8DA3
:10035000BB8DEE8DFF8D8DA180933F008EA180938C
:1003600038008FA18093390088A580933A0089A531
:1003700080933B008BA18EBF8CA18DBF8AA18F93F0
:1003800089A18F9388A18F938C8D8F938D8D8F935F
:10039000888D998DDF91CF911895C82FD92F8F9186
:1003A0008F918F918F918F918F918D8F8F918C8F56
:1003B0008F918F8F8F918E8F8F918B8F8F918A8F4F
:1003C0008F91898F8F91888F8F918F8B8F918E8B4B
:1003D0008F918D8B8F918C8B8F918B8B8F918A8B43
:1003E000198B088BFF86EE86DD86CC86BB86AA86B7
:1003F000998688867F826E825D824C823B822A82C9
:100400008F9189A78F9188A78F918FA38F918EA3AA
:100410008F918DA38F9188838F9189838F9188A3EA
:100420008F9189A38F918AA38EB78BA38DB78CA34D
:100430008AA18F9389A18F9388A18F931895AF93E9
:10044000BF93AC2FBD2FC82FD92F3F903A8E3F902E
:100450003B8E0F901F902F908F919F913F903D8EDC
:100460003F903C8E3F9038A23F9039A23F903AA2F5
:100470003EB63BA23DB63CA23AA03F9239A03F9285
:1004800038A03F923C8C3F923D8C3F929F938F933C
:100490002F921F920F92CA2FDB2F0895CF93DF93D5
:1004A000CDB7DEB780E096E02FEFFC01228380E439
:1004B00096E02FEFFC01218380E896E023E0FC0129
:1004C000228380EA96E02CE0FC0122830000DF9189
:1004D000CF910895CF93DF93CDB7DEB780E098E05A
:1004E000FC0110A211A280E098E028EF31E0FC01AD
:1004F00026A337A380E498E0FC0110A211A280E4B7
:1005000098E027E236E0FC0126A337A30000DF9144
:10051000CF910895CF93DF93CDB7DEB780E098E019
:1005200025E0FC012083000080E098E0FC01848548
:10053000882F90E081709927892BB1F380E098E0B3
:10054000FC01108280E098E02FEFFC01248700007E
:10055000DF91CF910895CF93DF93CDB7DEB780E4DD
:1005600098E027E0FC012083000080E498E0FC0193
:100570008485882F90E081709927892BB1F380E4DE
:1005800098E0FC01108280E498E02FEFFC012487C2
:100590000000DF91CF910895CF93DF93CDB7DEB701
:1005A00080E896E0FC018085882F90E08170992793
:1005B000892B11F40E941B0380E496E020E036E0D2
:1005C000F9012085FC01248380EA96E0FC01808506
:1005D000882F90E084709927892B11F780915820FB
:1005E0008431F1F20E948A0280EA96E0FC01808563
:1005F000882F90E084709927892B91F6000080EA7B
:1006000096E0FC018085882F90E084709927892BE3
:10061000B1F380915820882F90E020E036E0F90176
:100620002085875A9F4DFC012083809158208F5F41
:1006300080935820B5CFCF93DF931F92CDB7DEB70D
:10064000198280E896E0FC018085882F90E0827016
:100650009927892B11F40E94CC029981809158200E
:10066000981709F4198280E496E02981222F30E05E
:10067000275A3F4DF9012081FC01248389818F5F36
:1006800089830E94AB02DDCFCF93DF93CDB7DEB776
:100690000E944E020E946A02109258200E94CC02D0
:1006A0000000DF91CF910895CF93DF93CDB7DEB7F0
:1006B0000E94CD040E94E1048DE690E28093C42064
:1006C0009093C5201092C3201092C6208FE294E030
:1006D0000E94FF04FFCFCF93DF93CDB7DEB780E654
:1006E00096E028E0FC01268380E696E028E0FC0105
:1006F000218380E696E024E0FC01228380EA99E0F1
:1007000020E1FC01238380EA99E028E1FC012483B5
:1007100080EA99E023E2FC01258380EA99E025E75D
:10072000FC01268380EA99E020EDFC01278300008C
:10073000DF91CF910895CF93DF9300D01F92CDB773
:10074000DEB78B839C8319821A821CC0000080EA6A
:1007500099E0FC018181882F90E080729927892B94
:10076000B1F380EA99E029813A814B815C81240FC1
:10077000351FF9012081FC01208389819A8101962E
:1007800089839A8389819A812B813C81820F931F6F
:10079000FC0180818F32D1F600002496CDBFDEBFF0
:1007A000DF91CF910895CF93DF93CDB7DEB70000EF
:1007B00080EA99E0FC018181882F90E0807299277E
:1007C000892BB1F380EA99E02DE0FC012083000041
:1007D00080EA99E0FC018181882F90E0807299275E
:1007E000892BB1F380EA99E02AE0FC012083000024
:1007F000DF91CF910895CF93DF93CDB7DEB70E94FD
:10080000D30385E190E20E949B030000DF91CF912A
:100810000895CF93DF93CDB7DEB70E94D3030E9434
:10082000D3038CE290E20E949B030E94D30300005A
:10083000DF91CF910895CF93DF93CDB7DEB70E94BC
:10084000D3030E94D30380E090E20E949B030E94A6
:10085000D3030E94D3030000DF91CF910895CF937B
:10086000DF93CDB7DEB70E946B030E941B040E948A
:10087000FB03809156208823E1F38091C9208636BE
:1008800089F48091CA208F3669F48091CB20823719
:1008900049F48091CC208B3629F484E493E00E94C3
:1008A000FF0412C08091C920883671F48091CA205B
:1008B000853651F48091CB208C3631F48091CC2058
:1008C000803711F40E9409040E94FB031092562005
:1008D000D0CF1F920F9200903F000F9211240090F2
:1008E00038000F921092380000903A000F92109248
:1008F0003A0000903B000F9210923B002F938F9391
:100900009F93EF93FF93CF93DF931F92CDB7DEB703
:1009100080EA99E0FC018081898380EA99E029815D
:10092000FC01208389818D3031F481E08093562051
:10093000109257201AC089818F3751F48091572027
:10094000882331F0809157208150809357200DC02B
:100950008091572091E0980F90935720882F90E036
:1009600087539F4D2981FC01208300000F90DF9168
:10097000CF91FF91EF919F918F912F910F900092C6
:100980003B000F9000923A000F90009238000F90B9
:1009900000923F000F901F901895CF93DF93CDB733
:1009A000DEB70E942A0180EA90E020EA30E0F901F7
:1009B00022812160FC01228378940000DF91CF9195
:1009C0000895CF93DF93CDB7DEB780E09BE0FC01C5
:1009D00010A211A280E09BE023E431E0FC0126A3F9
:1009E00037A380E09BE021E0FC01268380E09BE0D0
:1009F00021E0FC0120830000DF91CF910895CF9387
:100A0000DF931F921F92CDB7DEB789839A838091BF
:100A1000C620882359F08091C4209091C5200E945F
:100A20001F028091C3208F5F8093C32080E09BE0F2
:100A3000FC01108280E09BE0FC0110A211A280E486
:100A40009BE0FC0110A211A280E49BE020E530E0D5
:100A5000FC0126A337A380E49BE021E0FC01268370
:100A60008091C6208F5F8093C6208091C620882FFA
:100A700090E0982F8827990F2FEF3FE3A901481B9B
:100A8000590BCA018093C7209093C8208DE390E052
:100A90002091C7203091C820FC0120838EE390E094
:100AA0002091C7203091C820232F3327FC012083B9
:100AB00080E09BE021E0FC01208380E49BE021E0DA
:100AC000FC01208389819A81FC01199500000F9017
:100AD0000F90DF91CF9108951F920F9200903F00E9
:100AE0000F921124009038000F921092380000905D
:100AF00039000F921092390000903A000F92109234
:100B00003A0000903B000F9210923B002F933F93CE
:100B10004F935F936F937F938F939F93AF93BF9305
:100B2000EF93FF93CF93DF9300D01F92CDB7DEB743
:100B30008091C620813079F18091C32091E0980F97
:100B40009093C320282F30E04BE2429FC001439F87
:100B5000900D112483599F4D89839A839091C320CE
:100B60008091C620981711F41092C3208091C32061
:100B7000282F30E04BE2429FC001439F900D11248B
:100B800083599F4D8B839C832B813C8189819A81E2
:100B9000B9010E94400100002496CDBFDEBFDF9165
:100BA000CF91FF91EF91BF91AF919F918F917F91E5
:100BB0006F915F914F913F912F910F9000923B0069
:100BC0000F9000923A000F90009239000F9000921F
:100BD00038000F9000923F000F901F9018951F92C1
:100BE0000F9200903F000F921124009038000F9256
:100BF00010923800009039000F9210923900009046
:100C00003A000F9210923A0000903B000F9210921F
:100C10003B002F933F934F935F936F937F938F93FB
:100C20009F93AF93BF93EF93FF93CF93DF931F9265
:100C30001F92CDB7DEB780E49BE0FC01108280916B
:100C4000C620882F90E001974BE2489F9001499F72
:100C5000300D11248091C4209091C520822B932BBC
:100C600089839A8389819A810E94CD0100000F9027
:100C70000F90DF91CF91FF91EF91BF91AF919F9135
:100C80008F917F916F915F914F913F912F910F9035
:100C900000923B000F9000923A000F9000923900B2
:100CA0000F90009238000F9000923F000F901F901D
:060CB0001895F894FFCF37
:100CB60020202020446576204275696C64205254B9
:100CC6004F53212F0075736572404445562D52458A
:100CD60056302E312E313A7E24202F005468697307
:100CE6002069732077686572652074686520686579
:100CF6006C702070726F6D707420776F756C6420E5
:060D0600676F21202F00A1
:00000001FF
